:020000040800F2
:10000000000003203D0400088D0400088D04000852
:100010008D0400088D0400088D0400080000000015
:100020000000000000000000000000008D04000837
:100030008D040008000000008D0400088D040008F5
:100040008D0400088D0400088D0400088D0400084C
:100050008D0400088D0400088D0400088D0400083C
:100060008D0400088D0400088D0400088D0400082C
:100070008D0400088D0400088D0400088D0400081C
:100080008D0400088D0400088D0400088D0400080C
:100090008D0400088D0400088D0400088D040008FC
:1000A0008D0400088D0400088D0400088D040008EC
:1000B0008D0400088D0400088D0400088D040008DC
:1000C0008D0400088D0400088D0400088D040008CC
:1000D0008D0400088D0400088D0400088D040008BC
:1000E0008D0400088D0400088D0400088D040008AC
:1000F0008D0400088D0400088D0400088D0400089C
:100100008D0400088D0400088D0400088D0400088B
:100110008D0400088D0400088D0400088D0400087B
:100120008D0400088D0400088D0400088D0400086B
:100130008D0400088D0400088D0400088D0400085B
:100140008D0400088D0400088D0400088D0400084B
:100150008D0400088D0400088D0400088D0400083B
:100160008D0400088D0400088D0400088D0400082B
:100170008D0400088D0400088D04000800000000B4
:100180008D0400088D0400088D0400088D0400080B
:100190008D0400088D0400088D0400088D040008FB
:0C01A0008D0400088D0400088D04000888
:1001AC0010B5054C237833B9044B13B10448AFF3A5
:1001BC0000800123237010BD04000020000000000B
:1001CC00D804000808B5034B1BB103490348AFF32F
:1001DC00008008BD0000000008000020D8040008C2
:1001EC00034AD2F8883043F47003C2F88830704761
:1001FC0000ED00E010B500F0C1F800F0F7F8544A3B
:10020C00D2F8183443F00103C2F818346EE0514AA6
:10021C00136801331360062B02DD134601221A60AA
:10022C004D4B00221A6000F0E1F80AE04B4B1C60C9
:10023C004749D1F818340122A2401343C1F81834AD
:10024C000134444B1B68A342F0DC5DE0444B1C685A
:10025C00A4B900F0CBF808E03D49D1F818340122DC
:10026C00A2401343C1F818340134052CF4DD3C4B87
:10027C0001221A60384B00221A6033E000F0B6F805
:10028C000023374A1360344A13602BE0334B1C6055
:10029C002F49D1F818340122A2401343C1F8183465
:1002AC0001342C4B1B68A342F0DC1BE02A4B1A6870
:1002BC0022442C4B83FB0213A3EBE27303EB4303AB
:1002CC00A2EB4303254A13602148D0F818240121DE
:1002DC0001FA03F31A43C0F818240C441D4B1B6895
:1002EC00A342E3DC204B1A68204B1A60204BD3F856
:1002FC00100400F4806000F097F81E4B18601E4B41
:10030C001C680CB9012882D01A4B1A681A4B1A6057
:10031C00174BD3F8100400F4006000F085F8124B72
:10032C001860124B1C68002CDCD10128DAD1094B67
:10033C001B68062B8AD0084A11680B441360052BE6
:10034C00CCDD00F053F8044B00221A60A9E700BF83
:10035C000010024000000020280000202400002093
:10036C0020000020ABAAAA2A300000202C0000207C
:10037C0000000240380000203400002010B487B088
:10038C00174AD2F8303843F02001C2F8301843F045
:10039C002203C2F83038EC46124C0FCCACE80F00FC
:1003AC0094E803008CE80300002212E00E4BD3F813
:1003BC00001406A800EB820050F8184C2143C3F837
:1003CC000014D3F8081450F8180C0143C3F808149F
:1003DC000132052AEADD07B05DF8044B704700BF17
:1003EC0000300240F0040008001002400D4AD2F820
:1003FC00183443F48031C2F8181443F44031C2F875
:10040C00181443F4E021C2F8181443F47021C2F814
:10041C00181443F4F811C2F8181443F47C13C2F8FE
:10042C00183470470010024000B1012070470000E2
:10043C00DFF834D00D480E490E4A002302E0D458A0
:10044C00C4500433C4188C42F9D30B4A0B4C002310
:10045C0001E013600432A242FBD3FFF7C1FE00F0AF
:10046C0011F8FFF7C7FE70470000032000000020C2
:10047C000400002010050008040000203C000020AF
:10048C00FEE7000070B50D4D0D4C641BA41000264A
:10049C00A64209D10B4D0C4C00F018F8641BA410AB
:1004AC000026A64205D170BD55F8043B984701368D
:1004BC00EEE755F8043B98470136F2E708050008CB
:1004CC0008050008080500080C050008F8B500BF71
:1004DC00F8BC08BC9E467047F8B500BFF8BC08BC19
:0404EC009E46704771
:1004F00001000000040000001000000040000000A7
:080500000001000000040000EE
:04050800D101000815
:04050C00AD01000835
:0405100001000000E6
:040000050800043DAE
:00000001FF
