:020000040800F2
:10000000000003200D0400085D0400085D040008E2
:100010005D0400085D0400085D04000800000000A5
:100020000000000000000000000000005D04000867
:100030005D040008000000005D0400085D04000885
:100040005D0400085D0400085D0400085D0400080C
:100050005D0400085D0400085D0400085D040008FC
:100060005D0400085D0400085D0400085D040008EC
:100070005D0400085D0400085D0400085D040008DC
:100080005D0400085D0400085D0400085D040008CC
:100090005D0400085D0400085D0400085D040008BC
:1000A0005D0400085D0400085D0400085D040008AC
:1000B0005D0400085D0400085D0400085D0400089C
:1000C0005D0400085D0400085D0400085D0400088C
:1000D0005D0400085D0400085D0400085D0400087C
:1000E0005D0400085D0400085D0400085D0400086C
:1000F0005D0400085D0400085D0400085D0400085C
:100100005D0400085D0400085D0400085D0400084B
:100110005D0400085D0400085D0400085D0400083B
:100120005D0400085D0400085D0400085D0400082B
:100130005D0400085D0400085D0400085D0400081B
:100140005D0400085D0400085D0400085D0400080B
:100150005D0400085D0400085D0400085D040008FB
:100160005D0400085D0400085D0400085D040008EB
:100170005D0400085D0400085D0400080000000044
:100180005D0400085D0400085D0400085D040008CB
:100190005D0400085D0400085D0400085D040008BB
:0C01A0005D0400085D0400085D04000818
:1001AC0010B5054C237833B9044B13B10448AFF3A5
:1001BC0000800123237010BD04000020000000000B
:1001CC00A804000808B5034B1BB103490348AFF35F
:1001DC00008008BD0000000008000020A8040008F2
:1001EC00034AD2F8883043F47003C2F88830704761
:1001FC0000ED00E010B500F0A9F800F0DFF8494A76
:10020C00D2F8183443F00103C2F818343EE0464AE1
:10021C00136801331360062B02DD134601221A60AA
:10022C00424B00221A6000F0C9F80AE0404B1C60F7
:10023C003C49D1F818340122A2401343C1F81834B8
:10024C000134394B1B68A342F0DC2DE0374B1A68A4
:10025C002244384B83FB0213A3EBE27303EB4303FF
:10026C00A2EB4303324A13602E48D0F81824012124
:10027C0001FA03F31A43C0F818240C442A4B1B68E8
:10028C00A342E3DC2C4B1A682C4B1A602C4BD3F892
:10029C00100400F4806000F0AFF82A4B18602A4B71
:1002AC001C680CB90128B2D0264B1A68264B1A6070
:1002BC00234BD3F8100400F4006000F09DF81E4BA3
:1002CC0018601E4B1C68002CDCD10128DAD1174AAF
:1002DC001368154909680B441360052BCEDD00F03B
:1002EC006DF8124B00221A600F4B1B68A342C9DD3C
:1002FC000E4B1A6822440F4B83FB0213A3EBE273E1
:10030C0003EB4303A2EB4303094A13600548D0F8FF
:10031C001824012101FA03F31A43C0F818240C44E1
:10032C00E2E700BF00100240000000202400002083
:10033C0020000020ABAAAA2A2C00002028000020B4
:10034C0000000240340000203000002010B487B0C0
:10035C00174AD2F8303843F02001C2F8301843F075
:10036C002203C2F83038EC46124C0FCCACE80F002C
:10037C0094E803008CE80300002212E00E4BD3F843
:10038C00001406A800EB820050F8184C2143C3F867
:10039C000014D3F8081450F8180C0143C3F80814CF
:1003AC000132052AEADD07B05DF8044B704700BF47
:1003BC0000300240C0040008001002400D4AD2F880
:1003CC00183443F48031C2F8181443F44031C2F8A5
:1003DC00181443F4E021C2F8181443F47021C2F845
:1003EC00181443F4F811C2F8181443F47C13C2F82F
:1003FC00183470470010024000B101207047000013
:10040C00DFF834D00D480E490E4A002302E0D458D0
:10041C00C4500433C4188C42F9D30B4A0B4C002340
:10042C0001E013600432A242FBD3FFF7D9FE00F0C7
:10043C0011F8FFF7DFFE70470000032000000020DA
:10044C0004000020E0040008040000203800002014
:10045C00FEE7000070B50D4D0D4C641BA41000267A
:10046C00A64209D10B4D0C4C00F018F8641BA410DB
:10047C000026A64205D170BD55F8043B98470136BD
:10048C00EEE755F8043B98470136F2E7D80400082C
:10049C00D8040008D8040008DC040008F8B500BF34
:1004AC00F8BC08BC9E467047F8B500BFF8BC08BC49
:0404BC009E467047A1
:1004C00001000000040000001000000040000000D7
:0804D00000010000000400001F
:0404D800D101000846
:0404DC00AD01000866
:0404E0000100000017
:040000050800040DDE
:00000001FF
