:020000040800F2
:10000000000003206D020008BD020008BD020008C8
:10001000BD020008BD020008BD020008000000008B
:10002000000000000000000000000000BD02000809
:10003000BD02000800000000BD020008BD0200086B
:10004000BD020008BD020008BD020008BD02000894
:10005000BD020008BD020008BD020008BD02000884
:10006000BD020008BD020008BD020008BD02000874
:10007000BD020008BD020008BD020008BD02000864
:10008000BD020008BD020008BD020008BD02000854
:10009000BD020008BD020008BD020008BD02000844
:1000A000BD020008BD020008BD020008BD02000834
:1000B000BD020008BD020008BD020008BD02000824
:1000C000BD020008BD020008BD020008BD02000814
:1000D000BD020008BD020008BD020008BD02000804
:1000E000BD020008BD020008BD020008BD020008F4
:1000F000BD020008BD020008BD020008BD020008E4
:10010000BD020008BD020008BD020008BD020008D3
:10011000BD020008BD020008BD020008BD020008C3
:10012000BD020008BD020008BD020008BD020008B3
:10013000BD020008BD020008BD020008BD020008A3
:10014000BD020008BD020008BD020008BD02000893
:10015000BD020008BD020008BD020008BD02000883
:10016000BD020008BD020008BD020008BD02000873
:10017000BD020008BD020008BD020008000000002A
:10018000BD020008BD020008BD020008BD02000853
:10019000BD020008BD020008BD020008BD02000843
:0C01A000BD020008BD020008BD020008FE
:1001AC0010B5054C237833B9044B13B10448AFF3A5
:1001BC0000800123237010BD00000020000000000F
:1001CC000803000808B5034B1BB103490348AFF300
:1001DC00008008BD00000000040000200803000897
:1001EC00034AD2F8883043F47003C2F88830704761
:1001FC0000ED00E008B500F019F806E00A4AD2F864
:10020C00183443F08003C2F81834074BD3F8103875
:10021C0013F4005FF2D1044AD2F8183443F080038F
:10022C00C2F81834F1E700BF000002400A4AD2F8C5
:10023C00303843F00203C2F83038084BD3F80024AE
:10024C0042F48042C3F80024D3F8082442F48042DC
:10025C00C3F80824704700BF003002400000024081
:10026C00DFF834D00D480E490E4A002302E0D45872
:10027C00C4500433C4188C42F9D30B4A0B4C0023E2
:10028C0001E013600432A242FBD3FFF7A9FF00F098
:10029C0011F8FFF7AFFF70470000032000000020AB
:1002AC000000002028030008000000201C00002093
:1002BC00FEE7000070B50D4D0D4C641BA41000261C
:1002CC00A64209D10B4D0C4C00F018F8641BA4107D
:1002DC000026A64205D170BD55F8043B984701365F
:1002EC00EEE755F8043B98470136F2E72003000887
:1002FC00200300082003000824030008F8B500BF01
:10030C00F8BC08BC9E467047F8B500BFF8BC08BCEA
:04031C009E46704742
:04032000D1010008FF
:04032400AD0100081F
:040000050800026D80
:00000001FF
