:020000040800F2
:100000000000032051040008A1040008A104000816
:10001000A1040008A1040008A104000800000000D9
:10002000000000000000000000000000A104000823
:10003000A104000800000000A1040008A1040008B9
:10004000A1040008A1040008A1040008A1040008FC
:10005000A1040008A1040008A1040008A1040008EC
:10006000A1040008A1040008A1040008A1040008DC
:10007000A1040008A1040008A1040008A1040008CC
:10008000A1040008A1040008A1040008A1040008BC
:10009000A1040008A1040008A1040008A1040008AC
:1000A000A1040008A1040008A1040008A10400089C
:1000B000A1040008A1040008A1040008A10400088C
:1000C000A1040008A1040008A1040008A10400087C
:1000D000A1040008A1040008A1040008A10400086C
:1000E000A1040008A1040008A1040008A10400085C
:1000F000A1040008A1040008A1040008A10400084C
:10010000A1040008A1040008A1040008A10400083B
:10011000A1040008A1040008A1040008A10400082B
:10012000A1040008A1040008A1040008A10400081B
:10013000A1040008A1040008A1040008A10400080B
:10014000A1040008A1040008A1040008A1040008FB
:10015000A1040008A1040008A1040008A1040008EB
:10016000A1040008A1040008A1040008A1040008DB
:10017000A1040008A1040008A10400080000000078
:10018000A1040008A1040008A1040008A1040008BB
:10019000A1040008A1040008A1040008A1040008AB
:0C01A000A1040008A1040008A10400084C
:1001AC0010B5054C237833B9044B13B10448AFF3A5
:1001BC0000800123237010BD04000020000000000B
:1001CC00EC04000808B5034B1BB103490348AFF31B
:1001DC00008008BD0000000008000020EC040008AE
:1001EC00034AD2F8883043F47003C2F88830704761
:1001FC0000ED00E010B500F0C5F800F0FBF8564A31
:10020C00D2F8183443F00103C2F818346EE0534AA4
:10021C00136801331360062B02DD134601221A60AA
:10022C004F4B00221A6000F0E5F80AE04D4B1C60C1
:10023C004949D1F818340122A2401343C1F81834AB
:10024C000134464B1B68A342F0DC5FE0464B1C6854
:10025C00A4B900F0CFF808E03F49D1F818340122D6
:10026C00A2401343C1F818340134052CF4DD3E4B85
:10027C0001221A603A4B00221A6033E000F0BAF8FF
:10028C000023394A1360364A13602BE0354B1C604F
:10029C003149D1F818340122A2401343C1F8183463
:1002AC0001342E4B1B68A342F0DC1BE02C4B1A686C
:1002BC0022442E4B83FB0213A3EBE27303EB4303A9
:1002CC00A2EB4303274A13602348D0F818240121DA
:1002DC0001FA03F31A43C0F818240C441F4B1B6893
:1002EC00A342E3DC224B1A68224B1A60224BD3F850
:1002FC00100400F4806000F0A1F8204B1860204B33
:10030C001C681CB91D4B1B68012B80D01B4B1A6839
:10031C001B4B1A60184BD3F8100400F4006000F06B
:10032C008DF8134B1860134B1C68002CDAD1104B52
:10033C001B68012BD6D1094B1B68062B86D0084AAB
:10034C0011680B441360052BC8DD00F053F8044B07
:10035C0000221A60A5E700BF001002400000002038
:10036C00240000202800002020000020ABAAAA2A8C
:10037C00300000202C00002000000240380000203B
:10038C003400002010B487B0174AD2F8303843F04C
:10039C002001C2F8301843F02203C2F83038EC4682
:1003AC00124C0FCCACE80F0094E803008CE803006F
:1003BC00002212E00E4BD3F8001406A800EB8200CA
:1003CC0050F8184C2143C3F80014D3F8081450F813
:1003DC00180C0143C3F808140132052AEADD07B0F2
:1003EC005DF8044B704700BF003002400405000864
:1003FC000010024010B487B0EC460E4C0FCCACE8A9
:10040C000F0094E803008CE8030000230BE00A497A
:10041C00D1F8182406A800EB830050F8180C0243FE
:10042C00C1F818240133052BF1DD07B05DF8044B3E
:10043C00704700BF1C0500080010024000B10120ED
:10044C0070470000DFF834D00D480E490E4A0023E7
:10045C0002E0D458C4500433C4188C42F9D30B4A6C
:10046C000B4C002301E013600432A242FBD3FFF7D4
:10047C00B7FE00F011F8FFF7BDFE70470000032037
:10048C0000000020040000203C05000804000020AF
:10049C003C000020FEE7000070B50D4D0D4C641BB8
:1004AC00A4100026A64209D10B4D0C4C00F018F8F4
:1004BC00641BA4100026A64205D170BD55F8043B60
:1004CC0098470136EEE755F8043B98470136F2E7BA
:1004DC003405000834050008340500083805000808
:1004EC00F8B500BFF8BC08BC9E467047F8B500BF15
:0804FC00F8BC08BC9E467047E5
:100504000100000004000000100000004000000092
:1005140000010000000400000000010000000200CF
:10052400000004000000080000001000000020008B
:04053400D1010008E9
:04053800AD01000809
:04053C0001000000BA
:04000005080004519A
:00000001FF
