:020000040800F2
:10000000000003204D0300089D0300089D03000825
:100010009D0300089D0300089D03000800000000E8
:100020000000000000000000000000009D03000828
:100030009D030008000000009D0300089D030008C8
:100040009D0300089D0300089D0300089D03000810
:100050009D0300089D0300089D0300089D03000800
:100060009D0300089D0300089D0300089D030008F0
:100070009D0300089D0300089D0300089D030008E0
:100080009D0300089D0300089D0300089D030008D0
:100090009D0300089D0300089D0300089D030008C0
:1000A0009D0300089D0300089D0300089D030008B0
:1000B0009D0300089D0300089D0300089D030008A0
:1000C0009D0300089D0300089D0300089D03000890
:1000D0009D0300089D0300089D0300089D03000880
:1000E0009D0300089D0300089D0300089D03000870
:1000F0009D0300089D0300089D0300089D03000860
:100100009D0300089D0300089D0300089D0300084F
:100110009D0300089D0300089D0300089D0300083F
:100120009D0300089D0300089D0300089D0300082F
:100130009D0300089D0300089D0300089D0300081F
:100140009D0300089D0300089D0300089D0300080F
:100150009D0300089D0300089D0300089D030008FF
:100160009D0300089D0300089D0300089D030008EF
:100170009D0300089D0300089D0300080000000087
:100180009D0300089D0300089D0300089D030008CF
:100190009D0300089D0300089D0300089D030008BF
:0C01A0009D0300089D0300089D0300085B
:1001AC0010B5054C237833B9044B13B10448AFF3A5
:1001BC0000800123237010BD00000020000000000F
:1001CC00E803000808B5034B1BB103490348AFF320
:1001DC00008008BD0000000004000020E8030008B7
:1001EC00034AD2F8883043F47003C2F88830704761
:1001FC0000ED00E008B500F05DF80DE02A4AD2F8F9
:10020C00183443F48023C2F8183443F00803C2F8BE
:10021C001834264B01221A60254BD3F8103413F4F2
:10022C00806F0FD1204AD2F8183443F00101C2F884
:10023C00181443F4003343F00103C2F818341B4B79
:10024C0000221A601A4BD3F8103413F4806F0DD0BF
:10025C00154AD2F8183443F48033C2F8183443F0FA
:10026C000203C2F81834114B01221A60104BD3F858
:10027C00103413F4006F0FD10B4AD2F8183443F03A
:10028C000401C2F8181443F4002343F00403C2F829
:10029C001834064B00221A60054BD3F8103413F4B3
:1002AC00006FB9D0AAE700BF001002401C0000206C
:1002BC0000000240204AD2F8303843F02001C2F846
:1002CC00301843F02203C2F830381C4BD3F800141A
:1002DC0041F00102C3F80024D3F8082442F00100D5
:1002EC00C3F8080441F00500C3F8000442F005000F
:1002FC00C3F8080441F01500C3F8000442F01500DF
:10030C00C3F8080441F05501C3F8001442F055023B
:10031C00C3F8082441F48070C3F8000442F48070E0
:10032C00C3F8080441F4A061C3F8001442F4A062BD
:10033C00C3F80824704700BF003002400010024090
:10034C00DFF834D00D480E490E4A002302E0D45891
:10035C00C4500433C4188C42F9D30B4A0B4C002301
:10036C0001E013600432A242FBD3FFF739FF00F027
:10037C0011F8FFF73FFF704700000320000000203A
:10038C0000000020080400080000002020000020CD
:10039C00FEE7000070B50D4D0D4C641BA41000263B
:1003AC00A64209D10B4D0C4C00F018F8641BA4109C
:1003BC000026A64205D170BD55F8043B984701367E
:1003CC00EEE755F8043B98470136F2E700040008C5
:1003DC00000400080004000804040008F8B500BF7D
:1003EC00F8BC08BC9E467047F8B500BFF8BC08BC0A
:0403FC009E46704762
:04040000D10100081E
:04040400AD0100083E
:040000050800034D9F
:00000001FF
