:020000040800F2
:100000000000032061030008B1030008B1030008E9
:10001000B1030008B1030008B103000800000000AC
:10002000000000000000000000000000B103000814
:10003000B103000800000000B1030008B10300088C
:10004000B1030008B1030008B1030008B1030008C0
:10005000B1030008B1030008B1030008B1030008B0
:10006000B1030008B1030008B1030008B1030008A0
:10007000B1030008B1030008B1030008B103000890
:10008000B1030008B1030008B1030008B103000880
:10009000B1030008B1030008B1030008B103000870
:1000A000B1030008B1030008B1030008B103000860
:1000B000B1030008B1030008B1030008B103000850
:1000C000B1030008B1030008B1030008B103000840
:1000D000B1030008B1030008B1030008B103000830
:1000E000B1030008B1030008B1030008B103000820
:1000F000B1030008B1030008B1030008B103000810
:10010000B1030008B1030008B1030008B1030008FF
:10011000B1030008B1030008B1030008B1030008EF
:10012000B1030008B1030008B1030008B1030008DF
:10013000B1030008B1030008B1030008B1030008CF
:10014000B1030008B1030008B1030008B1030008BF
:10015000B1030008B1030008B1030008B1030008AF
:10016000B1030008B1030008B1030008B10300089F
:10017000B1030008B1030008B1030008000000004B
:10018000B1030008B1030008B1030008B10300087F
:10019000B1030008B1030008B1030008B10300086F
:0C01A000B1030008B1030008B10300081F
:1001AC0010B5054C237833B9044B13B10448AFF3A5
:1001BC0000800123237010BD00000020000000000F
:1001CC00FC03000808B5034B1BB103490348AFF30C
:1001DC00008008BD0000000004000020FC030008A3
:1001EC00034AD2F8883043F47003C2F88830704761
:1001FC0000ED00E008B500F067F820E0304AD2F8D6
:10020C00183443F00101C2F8181443F00301C2F88A
:10021C00181443F00701C2F8181443F4002141F0FC
:10022C000701C2F8181443F4C01141F00701C2F8D9
:10023C00181443F4601343F00703C2F81834214B2D
:10024C00D3F8103413F4806FD8D113F4006F1BD093
:10025C001B4AD2F8183443F48031C2F8181443F412
:10026C004031C2F8181443F4E023C2F8183443F0B8
:10027C000801C2F8181443F01801C2F8181443F01E
:10028C003803C2F81834DAE70D4AD2F8183443F4BC
:10029C008031C2F8181443F44031C2F8181443F4F6
:1002AC00E021C2F8181443F47021C2F8181443F476
:1002BC00F811C2F8181443F47C13C2F81834BEE7D2
:1002CC000010024000000240204AD2F8303843F0BF
:1002DC002001C2F8301843F02203C2F830381C4B0E
:1002EC00D3F8001441F00102C3F80024D3F8082419
:1002FC0042F00100C3F8080441F00500C3F8000403
:10030C0042F00500C3F8080441F01500C3F80004DE
:10031C0042F01500C3F8080441F05501C3F800146D
:10032C0042F05502C3F8082441F48070C3F800046D
:10033C0042F48070C3F8080441F4A061C3F80014BF
:10034C0042F4A062C3F80824704700BF003002409A
:10035C0000100240DFF834D00D480E490E4A00233D
:10036C0002E0D458C4500433C4188C42F9D30B4A5D
:10037C000B4C002301E013600432A242FBD3FFF7C5
:10038C002FFF00F011F8FFF735FF70470000032036
:10039C0000000020000000201C04000800000020C9
:1003AC001C000020FEE7000070B50D4D0D4C641BC9
:1003BC00A4100026A64209D10B4D0C4C00F018F8E5
:1003CC00641BA4100026A64205D170BD55F8043B51
:1003DC0098470136EEE755F8043B98470136F2E7AB
:1003EC00140400081404000814040008180400087D
:1003FC00F8B500BFF8BC08BC9E467047F8B500BF06
:08040C00F8BC08BC9E467047D5
:04041400D10100080A
:04041800AD0100082A
:04000005080003618B
:00000001FF
