:020000040800F2
:100000000000032071040008C1040008C1040008B6
:10001000C1040008C1040008C10400080000000079
:10002000000000000000000000000000C104000803
:10003000C104000800000000C1040008C104000859
:10004000C1040008C1040008C1040008C10400087C
:10005000C1040008C1040008C1040008C10400086C
:10006000C1040008C1040008C1040008C10400085C
:10007000C1040008C1040008C1040008C10400084C
:10008000C1040008C1040008C1040008C10400083C
:10009000C1040008C1040008C1040008C10400082C
:1000A000C1040008C1040008C1040008C10400081C
:1000B000C1040008C1040008C1040008C10400080C
:1000C000C1040008C1040008C1040008C1040008FC
:1000D000C1040008C1040008C1040008C1040008EC
:1000E000C1040008C1040008C1040008C1040008DC
:1000F000C1040008C1040008C1040008C1040008CC
:10010000C1040008C1040008C1040008C1040008BB
:10011000C1040008C1040008C1040008C1040008AB
:10012000C1040008C1040008C1040008C10400089B
:10013000C1040008C1040008C1040008C10400088B
:10014000C1040008C1040008C1040008C10400087B
:10015000C1040008C1040008C1040008C10400086B
:10016000C1040008C1040008C1040008C10400085B
:10017000C1040008C1040008C10400080000000018
:10018000C1040008C1040008C1040008C10400083B
:10019000C1040008C1040008C1040008C10400082B
:0C01A000C1040008C1040008C1040008EC
:1001AC0010B5054C237833B9044B13B10448AFF3A5
:1001BC0000800123237010BD04000020000000000B
:1001CC000C05000808B5034B1BB103490348AFF3FA
:1001DC00008008BD00000000080000200C0500088D
:1001EC00034AD2F8883043F47003C2F88830704761
:1001FC0000ED00E010B500F0EFF86D4AD2F81834BD
:10020C0043F48031C2F8181443F44031C2F8181486
:10021C0043F4E021C2F8181443F47021C2F8181406
:10022C0043F4F811C2F8181443F47C13C2F81834D0
:10023C0043F00103C2F818345DE05E490A680132EC
:10024C000A60062A02DD0A46012111605A4A002181
:10025C00116001F1804101F50431D1F8182442F408
:10026C008030C1F8180442F44030C1F8180442F44C
:10027C00E020C1F8180442F47020C1F8180442F4CC
:10028C00F810C1F8180442F47C12C1F818240AE0E2
:10029C004A4A13604648D0F81824012199400A4371
:1002AC00C0F818240133434A12689A42F0DC3BE050
:1002BC003F49D1F8183443F48030C1F8180443F4A2
:1002CC004030C1F8180443F4E020C1F8180443F49A
:1002DC007020C1F8180443F4F810C1F8180443F462
:1002EC007C13C1F81834334B1B68934246DC344BF7
:1002FC001A68344B1A60344BD3F8103413F4806FF3
:10030C0002D1324B00221A602F4BD3F8103413F465
:10031C00806F02D02D4B01221A602D4B1B681BB92C
:10032C002A4A1268012A88D0284B1A68284B1A606E
:10033C00254BD3F8103413F4006F02D1204B00225C
:10034C001A60214BD3F8103413F4006F02D01C4BFD
:10035C0001221A60174B1B68174A1360194A12685E
:10036C00002AC4D1164909680129C0D15B00124981
:10037C000B60052B9CDD063B0B6099E70E4B196857
:10038C001144144B83FB0103A3EBE17303EB430315
:10039C0058000B1A09490B60054CD4F818140120AD
:1003AC0000FA03F31943C4F8181402449BE700BF86
:1003BC00001002400000002024000020200000203B
:1003CC002C000020280000200000024034000020F7
:1003DC0030000020ABAAAA2A204AD2F8303843F0C9
:1003EC002001C2F8301843F02203C2F830381C4BFD
:1003FC00D3F8001441F00102C3F80024D3F8082408
:10040C0042F00100C3F8080441F00500C3F80004F1
:10041C0042F00500C3F8080441F01500C3F80004CD
:10042C0042F01500C3F8080441F05501C3F800145C
:10043C0042F05502C3F8082441F48070C3F800045C
:10044C0042F48070C3F8080441F4A061C3F80014AE
:10045C0042F4A062C3F80824704700BF0030024089
:10046C0000100240DFF834D00D480E490E4A00232C
:10047C0002E0D458C4500433C4188C42F9D30B4A4C
:10048C000B4C002301E013600432A242FBD3FFF7B4
:10049C00A7FE00F011F8FFF7ADFE70470000032037
:1004AC0000000020040000202C050008040000209F
:1004BC0038000020FEE7000070B50D4D0D4C641B9C
:1004CC00A4100026A64209D10B4D0C4C00F018F8D4
:1004DC00641BA4100026A64205D170BD55F8043B40
:1004EC0098470136EEE755F8043B98470136F2E79A
:1004FC002405000824050008240500082805000828
:10050C00F8B500BFF8BC08BC9E467047F8B500BFF4
:08051C00F8BC08BC9E467047C4
:04052400D1010008F9
:04052800AD01000819
:04052C0001000000CA
:04000005080004717A
:00000001FF
