:020000040800F2
:1000000000000320C90200081903000819030008B2
:100010001903000819030008190300080000000074
:1000200000000000000000000000000019030008AC
:100030001903000800000000190300081903000854
:100040001903000819030008190300081903000820
:100050001903000819030008190300081903000810
:100060001903000819030008190300081903000800
:1000700019030008190300081903000819030008F0
:1000800019030008190300081903000819030008E0
:1000900019030008190300081903000819030008D0
:1000A00019030008190300081903000819030008C0
:1000B00019030008190300081903000819030008B0
:1000C00019030008190300081903000819030008A0
:1000D0001903000819030008190300081903000890
:1000E0001903000819030008190300081903000880
:1000F0001903000819030008190300081903000870
:10010000190300081903000819030008190300085F
:10011000190300081903000819030008190300084F
:10012000190300081903000819030008190300083F
:10013000190300081903000819030008190300082F
:10014000190300081903000819030008190300081F
:10015000190300081903000819030008190300080F
:1001600019030008190300081903000819030008FF
:100170001903000819030008190300080000000013
:1001800019030008190300081903000819030008DF
:1001900019030008190300081903000819030008CF
:0C01A000190300081903000819030008E7
:1001AC0010B5054C237833B9044B13B10448AFF3A5
:1001BC0000800123237010BD00000020000000000F
:1001CC006403000808B5034B1BB103490348AFF3A4
:1001DC00008008BD0000000004000020640300083B
:1001EC00034AD2F8883043F47003C2F88830704761
:1001FC0000ED00E008B500F01FF80E4AD2F81834F4
:10020C0043F00101C2F8181443F00301C2F81814AA
:10021C0043F00701C2F8181443F00F01C2F8181488
:10022C0043F01F01C2F8181443F03F03C2F818340E
:10023C00E3E700BF001002401E4AD2F8303843F00A
:10024C002003C2F830381C4BD3F8001441F00102E3
:10025C00C3F80024D3F8082442F00100C3F80804C2
:10026C0041F00500C3F8000442F00500C3F808048F
:10027C0041F01500C3F8000442F01500C3F808045F
:10028C0041F05501C3F8001442F05502C3F808249C
:10029C0041F48070C3F8000442F48070C3F8080481
:1002AC0041F4A061C3F8001442F4A062C3F808241E
:1002BC00704700BF0030024000100240DFF834D01D
:1002CC000D480E490E4A002302E0D458C4500433A2
:1002DC00C4188C42F9D30B4A0B4C002301E0136079
:1002EC000432A242FBD3FFF77BFF00F011F8FFF7BB
:1002FC0081FF704700000320000000200000002058
:10030C0084030008000000201C000020FEE7000011
:10031C0070B50D4D0D4C641BA4100026A64209D1DE
:10032C000B4D0C4C00F018F8641BA4100026A642D0
:10033C0005D170BD55F8043B98470136EEE755F8EA
:10034C00043B98470136F2E77C0300087C03000865
:10035C007C03000880030008F8B500BFF8BC08BC9B
:10036C009E467047F8B500BFF8BC08BC9E46704767
:04037C00D1010008A3
:04038000AD010008C3
:04000005080002C924
:00000001FF
