:020000040800F2
:1000000000000320D102000821030008210300089A
:10001000210300082103000821030008000000005C
:1000200000000000000000000000000021030008A4
:10003000210300080000000021030008210300083C
:100040002103000821030008210300082103000800
:1000500021030008210300082103000821030008F0
:1000600021030008210300082103000821030008E0
:1000700021030008210300082103000821030008D0
:1000800021030008210300082103000821030008C0
:1000900021030008210300082103000821030008B0
:1000A00021030008210300082103000821030008A0
:1000B0002103000821030008210300082103000890
:1000C0002103000821030008210300082103000880
:1000D0002103000821030008210300082103000870
:1000E0002103000821030008210300082103000860
:1000F0002103000821030008210300082103000850
:10010000210300082103000821030008210300083F
:10011000210300082103000821030008210300082F
:10012000210300082103000821030008210300081F
:10013000210300082103000821030008210300080F
:1001400021030008210300082103000821030008FF
:1001500021030008210300082103000821030008EF
:1001600021030008210300082103000821030008DF
:1001700021030008210300082103000800000000FB
:1001800021030008210300082103000821030008BF
:1001900021030008210300082103000821030008AF
:0C01A000210300082103000821030008CF
:1001AC0010B5054C237833B9044B13B10448AFF3A5
:1001BC0000800123237010BD00000020000000000F
:1001CC006C03000808B5034B1BB103490348AFF39C
:1001DC00008008BD00000000040000206C03000833
:1001EC00034AD2F8883043F47003C2F88830704761
:1001FC0000ED00E008B500F023F8104AD2F81834EE
:10020C0043F00101C2F8181443F00301C2F81814AA
:10021C0043F00701C2F8181443F04701C2F8181450
:10022C0043F4A37141F00101C2F8181443F4517363
:10023C0043F00303C2F81834DFE700BF00000240AC
:10024C001E4AD2F8303843F00203C2F830381C4B47
:10025C00D3F8001441F00102C3F80024D3F80824A9
:10026C0042F00100C3F8080441F00500C3F8000493
:10027C0042F00500C3F8080441F01501C3F800145E
:10028C0042F01502C3F8082441F48050C3F800046E
:10029C0042F48050C3F8080441F48830C3F80004D9
:1002AC0042F48830C3F8080441F4A221C3F80014C6
:1002BC0042F4A222C3F80824704700BF0030024069
:1002CC0000000240DFF834D00D480E490E4A0023DE
:1002DC0002E0D458C4500433C4188C42F9D30B4AEE
:1002EC000B4C002301E013600432A242FBD3FFF756
:1002FC0077FF00F011F8FFF77DFF70470000032037
:10030C0000000020000000208C03000800000020EA
:10031C001C000020FEE7000070B50D4D0D4C641B59
:10032C00A4100026A64209D10B4D0C4C00F018F875
:10033C00641BA4100026A64205D170BD55F8043BE1
:10034C0098470136EEE755F8043B98470136F2E73B
:10035C008403000884030008840300088803000851
:10036C00F8B500BFF8BC08BC9E467047F8B500BF96
:08037C00F8BC08BC9E46704766
:04038400D10100089B
:04038800AD010008BB
:04000005080002D11C
:00000001FF
