:020000040800F2
:10000000000003207D040008CD040008CD04000892
:10001000CD040008CD040008CD0400080000000055
:10002000000000000000000000000000CD040008F7
:10003000CD04000800000000CD040008CD04000835
:10004000CD040008CD040008CD040008CD0400084C
:10005000CD040008CD040008CD040008CD0400083C
:10006000CD040008CD040008CD040008CD0400082C
:10007000CD040008CD040008CD040008CD0400081C
:10008000CD040008CD040008CD040008CD0400080C
:10009000CD040008CD040008CD040008CD040008FC
:1000A000CD040008CD040008CD040008CD040008EC
:1000B000CD040008CD040008CD040008CD040008DC
:1000C000CD040008CD040008CD040008CD040008CC
:1000D000CD040008CD040008CD040008CD040008BC
:1000E000CD040008CD040008CD040008CD040008AC
:1000F000CD040008CD040008CD040008CD0400089C
:10010000CD040008CD040008CD040008CD0400088B
:10011000CD040008CD040008CD040008CD0400087B
:10012000CD040008CD040008CD040008CD0400086B
:10013000CD040008CD040008CD040008CD0400085B
:10014000CD040008CD040008CD040008CD0400084B
:10015000CD040008CD040008CD040008CD0400083B
:10016000CD040008CD040008CD040008CD0400082B
:10017000CD040008CD040008CD04000800000000F4
:10018000CD040008CD040008CD040008CD0400080B
:10019000CD040008CD040008CD040008CD040008FB
:0C01A000CD040008CD040008CD040008C8
:1001AC0010B5054C237833B9044B13B10448AFF3A5
:1001BC0000800123237010BD04000020000000000B
:1001CC001805000808B5034B1BB103490348AFF3EE
:1001DC00008008BD00000000080000201805000881
:1001EC00034AD2F8883043F47003C2F88830704761
:1001FC0000ED00E010B500F0D7F800F01BF9604AF4
:10020C00D2F8183443F00103C2F818343EE05D4ACA
:10021C00136801331360062B02DD134601221A60AA
:10022C00594B00221A6000F005F90AE0574B1C608C
:10023C005349D1F818340122A2401343C1F81834A1
:10024C000134504B1B68A342F0DC38E04E4B19686C
:10025C0011444F4B83FB0103A3EBE17303EB43030B
:10026C0058000B1A49490B60454CD4F8181401205E
:10027C0000FA03F31943C4F818140244414B1B68E9
:10028C009342E3DC434B1A68434B1A60434BD3F85D
:10029C00103413F4806F02D1414B00221A603F4B93
:1002AC00D3F8103413F4806F02D03D4B01221A6046
:1002BC003C4B1C681CB93A4B1B68012BA7D0384B24
:1002CC001A68384B1A60354BD3F8103413F4006F9E
:1002DC0002D1304B00221A60304BD3F8103413F497
:1002EC00006F02D02B4B01221A602B4B1A68002A8C
:1002FC00C8D1284B1B68012BC4D123490B6821485A
:10030C00006803440B60052BB8DD1D49D1F8183487
:10031C0043F48030C1F8180443F44030C1F8180499
:10032C0043F4E020C1F8180443F47020C1F8180419
:10033C0043F4F810C1F8180443F47C13C1F81834D2
:10034C00114B002119600F4B1B6893429ADD0E4B29
:10035C00196811440E4B83FB0103A3EBE17303EB10
:10036C00430358000B1A09490B60054CD4F81814B8
:10037C00012000FA03F31943C4F818140244E2E70D
:10038C00001002400000002024000020200000206B
:10039C00ABAAAA2A2C000020280000200000024052
:1003AC003400002030000020204AD2F8303843F0CE
:1003BC002001C2F8301843F02203C2F830381C4B2D
:1003CC00D3F8001441F00102C3F80024D3F8082438
:1003DC0042F00100C3F8080441F00500C3F8000422
:1003EC0042F00500C3F8080441F01500C3F80004FE
:1003FC0042F01500C3F8080441F05501C3F800148D
:10040C0042F05502C3F8082441F48070C3F800048C
:10041C0042F48070C3F8080441F4A061C3F80014DE
:10042C0042F4A062C3F80824704700BF00300240B9
:10043C00001002400D4AD2F8183443F48031C2F84F
:10044C00181443F44031C2F8181443F4E021C2F8F4
:10045C00181443F47021C2F8181443F4F811C2F8BC
:10046C00181443F47C13C2F818347047001002407F
:10047C00DFF834D00D480E490E4A002302E0D45860
:10048C00C4500433C4188C42F9D30B4A0B4C0023D0
:10049C0001E013600432A242FBD3FFF7A1FE00F08F
:1004AC0011F8FFF7A7FE70470000032000000020A2
:1004BC00040000203805000804000020380000204B
:1004CC00FEE7000070B50D4D0D4C641BA41000260A
:1004DC00A64209D10B4D0C4C00F018F8641BA4106B
:1004EC000026A64205D170BD55F8043B984701364D
:1004FC00EEE755F8043B98470136F2E73005000863
:10050C00300500083005000834050008F8B500BFB8
:10051C00F8BC08BC9E467047F8B500BFF8BC08BCD8
:04052C009E46704730
:04053000D1010008ED
:04053400AD0100080D
:0405380001000000BE
:040000050800047D6E
:00000001FF
